:020000040800F2
:100000000028002021040008C9030008CB030008D1
:10001000CD030008CF030008D10300080000000052
:10002000000000000000000000000000D3030008F2
:10003000D503000800000000D7030008D90300081A
:1000400069040008690400086904000869040008DC
:1000500069040008690400086904000869040008CC
:1000600069040008690400086904000869040008BC
:1000700069040008690400086904000869040008AC
:10008000690400086904000869040008690400089C
:10009000690400086904000869040008690400088C
:1000A000690400086904000869040008690400087C
:1000B00069040008690400080000000069040008E1
:1000C0006904000800000000000000006904000846
:1000D0000000000069040008690400080000000036
:1000E00069040008690400086904000800000000B1
:1000F0000000000000000000000000000000000000
:0C01000000000000000000005FF808F1A3
:10010C0010B5054C237833B9044B13B10448AFF345
:10011C0000800123237010BD5C0000200000000053
:10012C00501E000808B5034B1BB103490348AFF33D
:10013C00008008BD0000000060000020501E000878
:10014C00034613F8012B002AFBD1181A013870470B
:10015C0030B595B0242200210BA801F0E5F914224A
:10016C00102500210DEB020001F0DEF900212A46DA
:10017C0001A801F0D9F9022401230AA8CDE90E3512
:10018C000A9400F041FD014608B172B6FEE70F2358
:10019C00CDE90700CDE90530099005A800F0F6FE81
:1001AC0008B172B6FEE7039001A8019400F0AAFF13
:1001BC0008B172B6FEE715B030BD000030B587B09F
:1001CC0000F072F9FFF7C4FF304B314C9A690125EE
:1001DC0042F020029A619A69204602F020020192B4
:1001EC00019A9A6942F004029A619B69294A03F0C8
:1001FC0004030293029B226000234FF46022CDE99A
:10020C0003330593A36023732375E2616360256157
:10021C0000F058FB08B172B6FEE7CDE90305059076
:10022C0003A9204600F00CFA034608B172B6FEE7AB
:10023C004FF4165218481949C0E90233C0E90012AC
:10024C000C220361C0E90523C36101F0CDF8D8B9D4
:10025C00134D204600F0AEFA4FF47A71204600F0B0
:10026C0047F9204600F0E8F9294682B203A801F0CC
:10027C0039F903A8FFF764FF4FF47A7382B203A92C
:10028C00054801F0E0F8E4E772B6FEE70010024022
:10029C00C0000020002401407800002000380140FC
:1002AC00681E00080E4B82B09A6942F001029A61F6
:1002BC009A6902F001020092009ADA6942F08052C7
:1002CC00DA61DB69074A03F080530193019B5368A1
:1002DC0023F0E06343F08063536002B0704700BFCB
:1002EC00001002400000014010B5044686B01022F8
:1002FC00002102A801F018F92268104B9A421BD178
:10030C0003F56C439A690E4842F400729A619A693B
:10031C0002A902F400720092009A9A6942F0040257
:10032C009A619B69012203F004030193019B03234F
:10033C00CDE9022300F09AFB06B010BD0024014069
:10034C000008014010B5044686B01022002102A816
:10035C0001F0EAF82268174B9A4228D103F558436A
:10036C009A69154842F480429A619A6902A902F48A
:10037C0080420092009A9A6942F004029A619B6949
:10038C004FF4007203F004030193019B0223CDE9A7
:10039C0002230323059300F069FB4FF480610023D3
:1003AC000548CDE9021302A9049300F05FFB06B0E7
:1003BC0010BD00BF0038014000080140FEE7FEE719
:1003CC00FEE7FEE7FEE770477047704700F07EB827
:1003DC000B4A0346116810B509B90A491160106837
:1003EC0009490A4C0344091B8B4206D901F0A4F8B5
:1003FC000C2303604FF0FF3010BD1360FCE700BF0F
:10040C00F000002040020020002800200004000022
:10041C0070470000FFF7FCFF0B480C490C4A002307
:10042C0002E0D458C4500433C4188C42F9D3094A9E
:10043C00094C002301E013600432A242FBD301F00B
:10044C0081F8FFF7BBFE7047000000205C00002025
:10045C00F01E00085C00002040020020FEE70000B7
:10046C0038B50E4B05461A784FF47A73B3FBF2F39A
:10047C000B4A1068B0FBF3F000F0E4FA044658B9EC
:10048C000F2D09D8024629464FF0FF3000F0AAFA8A
:10049C002046044B1D6038BD0120FCE70400002001
:1004AC000000002008000020074A08B5136803204C
:1004BC0043F01003136000F083FA0F20FFF7D0FF16
:1004CC00FFF7F0FE002008BD00200240034A044B59
:1004DC0011681B780B441360704700BFF4000020B8
:1004EC0004000020014B1868704700BFF400002086
:1004FC00F7B5002604460D460196FFF7F3FF236877
:10050C0007469A68D10508D50120A36A84F82460AF
:10051C0043F02003A36203B0F0BD5A68D20503D4A4
:10052C00DB6A13F4700F3DD03D4B02201E6800F0C7
:10053C0063FE23683B4A1969B6FBF0F611423A4A4E
:10054C0051D1D868394908424DD1196911425BD152
:10055C00DA68374B1A420CBF142329235E43019BE4
:10056C00B34223D26A1C04D0002D53D1019BB34259
:10057C000AD3019B01330193F1E76E1C13D065B9CB
:10058C0023681B6898070DD4A36A032043F0040367
:10059C00A362002384F82430BDE7FFF7A3FFC01B40
:1005AC00A842EDD8226813689907E6D56FF01203BC
:1005BC0022681360A36A43F40073A362936803F484
:1005CC006023B3F5602F0CD1237B53B9A36A23F4BA
:1005DC008073A362A36ADB0403D4A36A43F0010310
:1005EC00A362002097E71969114203D1D968104A18
:1005FC0011420BD019690F4A114209D1DB68134221
:10060C000CBF5423FC23A9E72923A7E75423A5E710
:10061C00FC23A3E7FFF766FFC01BA842A6D8A8E7F8
:10062C00000000202449922492244912244992006B
:10063C0092244900499224000368D86C704700004A
:10064C00002373B5019390F824300446012B6CD031
:10065C00012380F824304D680268062D086805EBEC
:10066C00850322D81F26556B053B9E4025EA0605BF
:10067C0000FA03F32B43536309288B6800EB400506
:10068C004FF0070129D9D6681E3DA94026EA010181
:10069C00AB400B43D360A0F11003012B25D90020F4
:1006AC00002384F8243002B070BD0C2D4FF01F05D0
:1006BC0009D8166B233B9D4026EA050500FA03F387
:1006CC002B431363D8E7D66A413B9D4026EA0505C8
:1006DC0000FA03F32B43D362CEE71069A94020EA5A
:1006EC000101AB400B431361D9E7114B9A4216D170
:1006FC0093681B02D3D49368102843F400039360CF
:10070C00CDD10C4B0C4A1B68B3FBF2F30A225343BA
:10071C000193019B002BC2D0019B013BF8E7A36A1C
:10072C00012043F02003A362BAE70220BBE700BF1D
:10073C00002401400000002040420F00002337B588
:10074C000193036804469A68D20702D5002003B0CF
:10075C0030BD9A6842F001029A60144B144A1B682F
:10076C00B3FBF2F30193019BE3B9FFF7BBFE054624
:10077C0023689B68DB07E9D4FFF7B4FE401B022813
:10078C00F6D923689B6813F00103F1D1A26A01200A
:10079C0042F01002A262E26A84F8243042F00102B4
:1007AC00E262D4E7019B013BDCE700BF00000020C4
:1007BC0040420F0010B590F824300446012B54D061
:1007CC00012380F82430FFF7B9FF002849D1A36A30
:1007DC00274A23F4407323F0010343F48073A3628C
:1007EC002368934204D123494A6812F4702F2ED106
:1007FC00A26A22F48012A2625A68520541BFA26A10
:10080C0022F4405242F48052A262A26A12F4805244
:10081C001CBFE26A22F00602E262002284F8242065
:10082C006FF002021A609A6802F46022B2F5602F2F
:10083C0013D10F4A934205D1A2F58062526812F48B
:10084C00702F0AD19A6842F4A0029A6010BDA26A75
:10085C0042F48012A2624A68CFE79A6842F480128E
:10086C00F3E7002384F82430F0E70220EEE700BF22
:10087C00002801400024014038B5036804469A68FA
:10088C00D10701D4002038BD9A6822F001029A6089
:10089C00FFF728FE054623689B68DB07F2D5FFF7B8
:1008AC0021FE401B0228F6D923689B68DA07F2D593
:1008BC00A36A012043F01003A362E36A43F001032F
:1008CC00E362E0E7F8B5044600286DD0836A23B9EB
:1008DC00C36280F82430FFF707FD2046FFF7CCFFFA
:1008EC00A36A13F0100361D100285FD1A26A61687A
:1008FC0022F4885222F0020242F00202E569A66854
:10090C00A262227B2943B6F5807F41EA420136D0B0
:10091C00771E7D427D412D02277D012F06D182BBA2
:10092C00A269013A45EA423242F400652268B6F502
:10093C00807F576827F4694745EA07055560976833
:10094C001D4D05EA070545EA0105956001D0012E0C
:10095C0002D12369013B1B05D56A25F470052B4395
:10096C00D3629268154B1340994213D10023E36272
:10097C00A36A23F0030343F00103A362F8BD3546D9
:10098C00CAE7A26A42F02002A262E26A42F00102C5
:10099C00E262CBE7A36A23F0120343F01003A362D5
:1009AC00E36A43F00103E3620120E7E7A36A43F043
:1009BC001003A362F8E700BFFDF7E1FFFE0E1FFF77
:1009CC0007490302CA6803F4E06322F4E0621204EC
:1009DC00120C134343F0BF6343F40033CB607047F6
:1009EC0000ED00E0154B30B5DC68C4F30224C4F113
:1009FC000703251D042B28BF0423062D4FF0FF35BC
:100A0C0094BF0024033C05FA03F321EA0303A54039
:100A1C0022EA0502A340002843EA0203ACBF00F11E
:100A2C006040074A4FEA0313DBB2ABBF00F56140ED
:100A3C0000F00F0080F80033135430BD00ED00E0DF
:100A4C0014ED00E00138B0F1807F0BD24FF0E023C1
:100A5C00F021054A586182F8231000200722986182
:100A6C001A6170470120704700ED00E02DE9F74F47
:100A7C0000224FF00F0E1646DFF878C15E4B00F1E6
:100A8C0004080D6835FA06F402D103B0BDE8F08F06
:100A9C00012404FA06F705EA070437EA050572D1C2
:100AAC004D68032D06D8013D022D7FD8DFE805F0F7
:100ABC008F949A00122D00F0928066D8112D00F0C0
:100ACC008880FF2C94BF8146C1464FEA8605D9F831
:100ADC00007088BF203D0EFA05FA27EA0A0702FAD1
:100AEC0005F52F43C9F80070D1F8049019F0805F18
:100AFC0049D0DCF8185026F0030745F00105CCF876
:100B0C001850DCF8185007F1804705F001050195E5
:100B1C0007F5803706F0030A019D4FEA8A0ABD6883
:100B2C000EFA0AFB25EA0B0B344DA8425ED005F5F4
:100B3C008065A8425CD005F58065A84214BF0325EA
:100B4C00022505FA0AF545EA0B05BD609D6819F406
:100B5C00801F14BF2543A5439D60DD6819F4001F59
:100B6C0014BF2543A543DD605D6819F4003F14BF35
:100B7C002543A5435D601D6819F4803F14BF2C43C9
:100B8C0025EA04041C6001367BE7DFF874904D45C0
:100B9C000CD015D8A9F580194D4507D009F5702949
:100BAC004D4503D0A9F580194D458AD18A68DAB133
:100BBC00012A08BF07614FF0080218BF476180E7A0
:100BCC00DFF840904D45F1D009F58039ECE7CA6863
:100BDC0077E7CA68043274E7CA68083271E7CA68F2
:100BEC000C326EE700226CE704226AE70025A8E7C6
:100BFC000125A6E700100240000401400008014056
:100C0C0000002210000031102DE9F341054638B3E5
:100C1C000368DB0710D42B689F075ED42B68190779
:100C2C0000F195802B685A0700F1C180EB69002B0D
:100C3C0040F02C81002029E0904C636803F00C03F9
:100C4C00042B07D0636803F00C03082B0AD16368EC
:100C5C00DE0307D523689C03DDD56B68002BDAD146
:100C6C00012013E06B68B3F5803F12D1236843F485
:100C7C0080332360FFF736FC064623689803CAD4FA
:100C8C00FFF730FC801B6428F7D9032002B0BDE8C5
:100C9C00F0819BB9236823F480332360236823F409
:100CAC0080232360FFF71EFC064623689903B2D508
:100CBC00FFF718FC801B6428F7D9E6E7B3F5A02FE3
:100CCC00236803D143F480232360CFE723F48033DC
:100CDC002360236823F48023CBE7684C636813F00C
:100CEC000C0F07D0636803F00C03082B10D163685A
:100CFC00DA030DD423689B0702D52B69012BAFD1E6
:100D0C0023686A6923F0F80343EAC203236085E78A
:100D1C002A695B4B6AB101221A60FFF7E3FB0646B6
:100D2C0023689F07ECD4FFF7DDFB801B0228F7D963
:100D3C00ABE71A60FFF7D6FB0646236898077FF5EA
:100D4C006DAFFFF7CFFB801B0228F6D99DE7AA6990
:100D5C004A4E4B4BE2B10122C3F88024FFF7C2FB91
:100D6C000446736A9B070DD54FF4FA52454B1B682A
:100D7C00B3FBF2F3019300BF019B5A1E0192002BAF
:100D8C00F9D14FE7FFF7AEFB001B0228E9D97CE74E
:100D9C00C3F88024FFF7A6FB0446736A9F077FF510
:100DAC0041AFFFF79FFB001B0228F6D96DE7334CD0
:100DBC00E369D80024D40127E36943F08053E3614D
:100DCC00E36903F080530093009B2F4E3368D905E1
:100DDC0018D5EB68012B26D1236A43F0010323625B
:100DEC00FFF780FB41F288380646236A9B073FD504
:100DFC00002F3FF41BAFE36923F08053E36115E749
:100E0C000027E2E7336843F480733360FFF76AFB33
:100E1C0080463368DA05DCD4FFF764FBA0EB0800EE
:100E2C006428F6D931E7ABB9236A41F2883823F04C
:100E3C0001032362236A23F004032362FFF752FBAE
:100E4C000646236A9807D3D5FFF74CFB801B404519
:100E5C00F7D91AE7052B236A03D143F00403236265
:100E6C00BAE723F001032362236A23F00403B6E7F5
:100E7C00FFF738FB801B4045B7D906E7001002404E
:100E8C000000424200000020007000402A4C6268C2
:100E9C0002F00C02082A3ED00022022B274B1A66C5
:100EAC002CD1FFF71FFB06462368990120D42B6A2F
:100EBC00B3F5803F05D16268A96822F400320A4379
:100ECC006260696A62680B4322F474121343012254
:100EDC0063601A4B1A66FFF705FB054623689A01F7
:100EEC003FF5A8AEFFF7FEFA401B0228F6D9CCE678
:100EFC00FFF7F8FA801B0228D6D9C6E6FFF7F2FAFC
:100F0C00054623689B017FF595AEFFF7EBFA401B76
:100F1C000228F6D9B9E6012B3FF4A2AE60682B6A21
:100F2C0000F480329A427FF49BAE6B6A00F470102E
:100F3C00C01A18BF0120A9E600100240000042426E
:100F4C000D4A536803F00C01082912D10B48C3F366
:100F5C008341DB03405C09D55368094AC3F3404322
:100F6C005043084AD35CB0FBF3F07047064B584330
:100F7C0070470348704700BF00100240BB1E0008BA
:100F8C0000127A00B91E000800093D002DE9F0415D
:100F9C000D46044610B90120BDE8F081444A13689F
:100FAC0003F007038B4228D321688E0730D4CA077D
:100FBC0043D43F4A136803F00703AB4265D8226859
:100FCC003C4D12F0040F6CD1130706D56B682269E7
:100FDC0023F4605343EAC2036B60FFF7B1FF6B6805
:100FEC00354AC3F30313D35CD840344B1860344BED
:100FFC001868FFF735FA0020CEE7136823F00703D3
:10100C000B431360136803F007038B42C3D1CBE788
:10101C00284B11F0040F1EBF5A6842F4E0625A606C
:10102C00080742BF5A6842F460525A605A68A06876
:10103C0022F0F00202435A60B9E762681D4E012AA1
:10104C0033681AD113F4003FA5D0736841F2883885
:10105C0023F0030313437360FFF744FA07467368E6
:10106C00626803F00C03B3EB820FA2D0FFF73AFADD
:10107C00C01B4045F3D903208EE7022A02D113F09E
:10108C00007FE1E713F0020FDEE7136823F007039C
:10109C002B431360136803F00703AB427FF47BAF61
:1010AC008DE76B68E16823F4E0630B436B608BE7BF
:1010BC000020024000100240A91E00080000002081
:1010CC0008000020044B054A5B68C3F30223D35C81
:1010DC00034A1068D840704700100240A11E000857
:1010EC0000000020044B054A5B68C3F3C223D35CA9
:1010FC00034A1068D840704700100240A11E000837
:10110C000000002003682DE9F3410546D80721D5DE
:10111C00364CE369D9002BD40126E36943F08053A4
:10112C00E361E36903F080530193019B304F3B680B
:10113C00DA051FD5236A6A6813F440732ED1236A2B
:10114C006A6823F44073134323621EB1E36923F0EE
:10115C008053E3612A68910706D52449A8684B6837
:10116C0023F4404303434B60D30636D4002012E0F3
:10117C000026DBE73B6843F480733B60FFF7B2F972
:10118C0080463B68DB05D5D4FFF7ACF9A0EB080033
:10119C006428F6D9032002B0BDE8F08102F4407255
:1011AC009A42CCD00120134A236AC2F84004002092
:1011BC0023F44071DF07C2F840042162BFD5FFF76A
:1011CC0091F941F288380746236A9807B7D4FFF79C
:1011DC0089F9C01B4045F7D9DCE7044AE968536834
:1011EC0023F480030B435360C0E700BF00100240A0
:1011FC000070004000004242022808B544D010287C
:10120C0003D0012822D0002034E0254B5A681868FE
:10121C0010F080702ED0C2F383412248D20348BF15
:10122C005A68405C41BF2049C2F34042895C1F4A66
:10123C005B684CBFB2FBF1F21D4A5B0202FB00F093
:10124C0018D403234000B0FBF3F013E040F202315A
:10125C00134A136A1940B1F5817F1ED003F4407311
:10126C00B3F5007F07D149F64040536A13F0020FE3
:10127C0008BF002008BDB3F5407FC4D113684FF2FE
:10128C00244013F4003FF3E7FFF72CFF044B5B689B
:10129C00C3F3813301335B00D5E74FF40040E9E73A
:1012AC0000100240CD1E0008CB1E000800127A0070
:1012BC0000093D00026802F10C0353E8003F23F4DF
:1012CC0090730C3242E8003102680029F2D102F12D
:1012DC00140353E8003F23F0010302F1140C4CE813
:1012EC0000310029F3D1036B012B0BD102F10C035C
:1012FC0053E8003F23F0100302F10C0C4CE80031D2
:10130C000029F3D1202380F8423000230363704777
:10131C0010B504460368C1681A6922F440520A43A6
:10132C001A6182680069D9680243606921F4B0517E
:10133C0021F00C0102430A43DA605A69A16922F4D4
:10134C0040720A435A610E4A934215D1FFF7CAFE06
:10135C0019234343626820689200B3FBF2F36422C2
:10136C00B3FBF2F102FB11331B013233B3FBF2F38B
:10137C0003EB0113836010BDFFF7A4FEE8E700BF89
:10138C0000380140F7B505460C4617461E462A683C
:10139C00136834EA030301D1002021E0701CF7D05C
:1013AC00FFF7A0F8C01B86421CD3DEB12B68DA68AD
:1013BC005107ECD5802CEAD0402CE8D01A681207E3
:1013CC00E5D5002401941A68284601925B680193C4
:1013DC00019BFFF76FFF082301206B6485F84040E9
:1013EC0003B0F0BD0320FBE710B5044648B390F8FA
:1013FC00413003F0FF021BB980F84020FEF7A2FF3A
:10140C002423226884F84130D368204623F4005307
:10141C00D360FFF77DFF236800201A6922F4904205
:10142C001A615A6922F02A025A61DA6842F40052AF
:10143C00DA602023606484F8413084F842306063C1
:10144C0010BD0120FCE72DE9F843984690F8413097
:10145C000446202B0E4617463FD100293FD0002AC8
:10146C003DD021230025456480F84130FFF73AF840
:10147C00A3688146B3F5805FA784E78403D1236911
:10148C000BB935461E46E38C9BB253B943464A46CC
:10149C0040212046FFF776FF202350B984F84130D5
:1014AC000AE043464A4680212046FFF76BFF28B1ED
:1014BC002023032084F84130BDE8F88322684EB91C
:1014CC0035F8023BC3F308035360E18C013989B250
:1014DC00E184D8E716F8013BF6E70220ECE701209F
:1014EC00EAE700000EB46FF0004110B500249DB087
:1014FC001FAB02900690079104910948094953F8D3
:10150C00042B0591006802A901931B9400F092F939
:10151C00029B1C701DB0BDE8104003B0704700BFAB
:10152C000C0000200802FFFF03460244934200D146
:10153C00704703F8011BF9E7014B1868704700BFAF
:10154C000C00002070B500260C4D0D4C641BA41033
:10155C00A64209D100F076FC00260A4D0A4C641B09
:10156C00A410A64205D170BD55F8043B984701362E
:10157C00EEE755F8043B98470136F2E7E81E000801
:10158C00E81E0008E81E0008EC1E000870477047B3
:10159C0038B50546002940D051F8043C0C1F002BEF
:1015AC00B8BFE41800F0DEF81C4A136833B9636066
:1015BC0014602846BDE8384000F0DAB8A34208D9D8
:1015CC00206821188B4201BF19685B6809182160DB
:1015DC00EDE71A465B680BB1A342FAD911685018B3
:1015EC00A0420BD120680144501883421160E0D115
:1015FC0018685B68084410605360DAE702D90C2362
:10160C002B60D6E7206821188B4201BF19685B68F4
:10161C000918216063605460CBE738BD3C020020A0
:10162C0070B50F4E0C463168054611B900F0A8FB99
:10163C0030602146284600F0A3FB431C03D14FF039
:10164C00FF34204670BDC41C24F00304A042F8D023
:10165C00211A284600F094FB0130F2D1EFE700BFCD
:10166C00380200202DE9F843CD1C25F00305083580
:10167C000C2D38BF0C25002D064601DBA94204D9E0
:10168C000C2333600020BDE8F883DFF8D48000F031
:10169C0069F8D8F800301C4644BB29463046FFF7A1
:1016AC00BFFF431C044658D1D8F800402746002FF2
:1016BC0043D1002C4BD023683946304604EB030948
:1016CC0000F05EFB814542D1216830466D1A2946F7
:1016DC00FFF7A6FF01303AD023682B442360D8F8DB
:1016EC0000305A6862BBC8F800700FE02268521BC9
:1016FC0020D40B2A17D96119A342256018BF596051
:10170C00636808BFC8F8001062514B60304600F0A7
:10171C002FF804F10B00231D20F00700C21A1CBF88
:10172C001B1AA350AFE76268A3420CBFC8F8002095
:10173C005A60EBE723466468AEE73C467F68B6E741
:10174C001A465B68A342FBD100235360DEE70C23EF
:10175C003046336000F00CF894E70560D6E700BF24
:10176C003C0200200148FFF711BF00BF34020020EB
:10177C000148FFF70CBF00BF340200202DE9F047F1
:10178C001F468E688246BE420C4690460B682DD88A
:10179C00B1F90C2012F4906F26D06569096905EB3C
:1017AC004505A3EB010905EBD5757B1C4B446D106E
:1017BC009D4238BF1D46530527D52946FFF752FFDA
:1017CC00064660B34A46216900F0F8FAA38923F46F
:1017DC00906343F08003A38126614E4426603E460D
:1017EC006561A5EB0905A560BE4200D93E463246AF
:1017FC004146206800F0AAFA0020A3689B1BA36056
:10180C00236833442360BDE8F0872A4600F0E4FAED
:10181C0006460028E0D150462169FFF7B9FE0C239B
:10182C00CAF80030A3894FF0FF3043F04003A38186
:10183C00E9E700002DE9F04F98468B8907461B0617
:10184C000D4614469DB010D50B6973B94021FFF7B6
:10185C0009FF2860286130B90C233B604FF0FF3042
:10186C001DB0BDE8F08F40236B610023099320234A
:10187C008DF8293030234FF00109CDF80C80DFF8BA
:10188C0098818DF82A3023469A4613F8012B0AB119
:10189C00252AF9D1BAEB040B0BD05B46224629461C
:1018AC003846FFF76BFF013000F0A780099A5A44C5
:1018BC0009929AF80030002B00F09F8000234FF023
:1018CC00FF32CDE905230AF1010A049307938DF841
:1018DC0053301A935446052214F8011B4E4800F05D
:1018EC005FFA049AD8B9D00644BF20238DF8533040
:1018FC00110744BF2B238DF853309AF800302A2B54
:10190C0015D0544600204FF00A0C079A214611F8C6
:10191C00013B303B092B4BD9B0B1079214E0A0EB43
:10192C00080309FA03F31343A2460493D2E7039B7B
:10193C00191D1B680391002BBBBF5B4242F00202D6
:10194C0007930793B8BF049223782E2B0AD16378A0
:10195C002A2B32D1039B02341A1D1B68039243EAD3
:10196C00E3730593DFF8B4A003225046217800F00E
:10197C0017FA38B14022049BA0EB0A0082401343B3
:10198C000134049314F8011B062225488DF8281005
:10199C0000F006FA002836D0224B1BBB039B073302
:1019AC0023F0070308330393099B334409936AE735
:1019BC000C4601200CFB0232A8E700234FF00A0C66
:1019CC00194601340593204610F8012B303A092AA8
:1019DC0003D9002BC6D00591C4E7044601230CFBA8
:1019EC000121F0E703AB00932A4638460E4B04A9BD
:1019FC00AFF30080421C0646D6D1AB895B063FF59F
:101A0C002DAF09982CE703AB00932A463846064BBA
:101A1C0004A900F07DF8EDE76E1E0008741E0008A6
:101A2C00781E000800000000891700082DE9F04717
:101A3C00164698468A680B6907469342B8BF134608
:101A4C00336091F843200C46DDF820900AB1013345
:101A5C0033602368990642BF3368023333602568CC
:101A6C0015F0060506D104F1190AE36832689B1AD1
:101A7C00AB422BDC94F843302268003B18BF0123A7
:101A8C00920630D44146384604F14302C84701302F
:101A9C0023D02368226903F00603042B14BF00250E
:101AAC0033684FF0000608BFE56804F11A0408BF5C
:101ABC00ED1A54F8123C08BF25EAE5759342C4BFF1
:101ACC009B1AED18B5421AD1002008E001235246AA
:101ADC0041463846C847013003D14FF0FF30BDE8CE
:101AEC00F0870135C1E73020E11881F843005A1C1A
:101AFC0094F845102244023382F84310C2E70123C4
:101B0C00224641463846C8470130E6D00136D9E76F
:101B1C002DE9FF470F7E9146782F80460C469A465A
:101B2C000C9E01F1430207D8622F0AD8002F00F057
:101B3C00D180582F00F0B88004F1420684F842702E
:101B4C003AE0A7F16303152BF6D801A151F823F065
:101B5C00B51B0008C91B0008451B0008451B0008E5
:101B6C00451B0008451B0008C91B0008451B000845
:101B7C00451B0008451B0008451B0008C71C000836
:101B8C00F31B0008811C0008451B0008451B0008BE
:101B9C00E91C0008451B0008F31B0008451B000846
:101BAC00451B0008891C000833681A1D1B6832602D
:101BBC0004F1420684F8423001239CE0336820682B
:101BCC00191D3160060601D51D6803E04506FBD5DD
:101BDC00B3F90050002D03DA2D236D4284F8433005
:101BEC000A23584811E021683368080653F8045B4F
:101BFC0002D4490648BFADB26F2F336014BF0A231D
:101C0C0008235048002184F843106668002EA66013
:101C1C0005DB21682E4321F0040121604BD01646D0
:101C2C00B5FBF3F103FB1157C75D06F8017D2F4699
:101C3C00BB420D46F4D9082B0BD12368DF0708D51E
:101C4C00236961689942DEBF302306F8013C06F136
:101C5C00FF36921B22614B4621464046CDF800A030
:101C6C0003AAFFF7E3FE01304AD14FF0FF3004B076
:101C7C00BDE8F087236843F02003236078273248BF
:101C8C0084F84570236831681F0651F8045B02D450
:101C9C005F0648BFADB23160D90744BF43F02003A3
:101CAC0023601DB11023ADE72648E9E7236823F034
:101CBC0020032360F6E71646BDE733682568181D38
:101CCC00616930602E061B6801D5196002E0680658
:101CDC00FBD51980002316462361BCE7336800212D
:101CEC001A1D32601E686268304600F059F808B15F
:101CFC00801B606063682361002384F84330AAE78B
:101D0C003246494640462369D0470130ADD023685E
:101D1C009B0713D4E068039B9842B8BF1846A6E70C
:101D2C000123324649464046D04701309DD001350B
:101D3C00E36803995B1AAB42F2DCEBE7002504F194
:101D4C001906F5E77F1E0008901E0008884210B5A2
:101D5C0001EB020402D98442234607D8431EA14258
:101D6C0008D011F8012B03F8012FF8E701460244C3
:101D7C008A4200D110BD13F8014D02F8014DF7E76E
:101D8C0038B50023054D044608462B60FEF720FBB2
:101D9C00431C02D12B6803B1236038BD30020020F4
:101DAC00034610B5C9B202449342184601D1002033
:101DBC0003E0047801338C42F6D110BD0A44914201
:101DCC0000F1FF3300D1704710B511F8014B91426F
:101DDC0003F8014FF9D110BD2DE9F0410746144627
:101DEC000D4621B91146BDE8F041FFF73BBC2AB9BD
:101DFC00FFF7CEFB25462846BDE8F08100F01AF827
:101E0C008442064602D8B4EB500FF4D8214638462B
:101E1C00FFF728FC804608B94546ECE7B442224659
:101E2C00294628BF3246FFF7C9FF29463846FFF737
:101E3C00AFFBF1E751F8043C181F002BBCBF0B584B
:101E4C00C0187047F8B500BFF8BC08BC9E46704778
:0C1E5C00F8B500BFF8BC08BC9E467047FB
:101E68002568750D0A00232D302B2000686C4C0066
:101E78006566674546470030313233343536373882
:101E880039414243444546003031323334353637E0
:101E9800383961626364656600000000000102036E
:101EA8000400000000000000000102030406070807
:101EB80009010202030405060708090A0B0C0D0EA6
:101EC8000F1010010202030405060708090A0B0C8B
:081ED8000D0E0F1010000000B8
:081EE0006CE2FF7F010000002D
:041EE80031010008BC
:041EEC000D010008DC
:101EF00000127A0001000000100000001000002015
:101F000000000000F800002060010020C80100204F
:101F100000000000000000000000000000000000C1
:101F200000000000000000000000000000000000B1
:101F300000000000000000000000000000000000A1
:0C1F400000000000000000000000000095
:0400000508000421CA
:00000001FF
